S02200007673636F64652D6275696C642F6E766D335F626172656D6574616C2E73333752
S3150800000000100020D9050008A1740008A174000892
S31508000010A1740008A1740008A1740008A17400085E
S31508000020A1740008A1740008A1740008A17400084E
S31508000030A1740008A1740008A1740008A17400083E
S31508000040A1740008A1740008A1740008A17400082E
S31508000050A1740008A1740008A1740008A17400081E
S31508000060A1740008A1740008A1740008950400088A
S31508000070C7730008A1740008A1740008A1740008D9
S31508000080A1740008A1740008A1740008A1740008EE
S31508000090A1740008A1740008810D0008A174000865
S315080000A0A1740008A1740008A1740008A1740008CE
S315080000B0A1740008A1740008A1740008A1740008BE
S315080000C0A1740008A1740008A1740008A1740008AE
S315080000D0A1740008A1740008A1740008A17400089E
S315080000E0A1740008A1740008A1740008A17400088E
S315080000F0A1740008A1740008A1740008A17400087E
S31508000100A1740008A1740008A1740008A17400086D
S31508000110A1740008A1740008A1740008A17400085D
S31508000120A1740008A1740008A1740008A17400084D
S31508000130A1740008A1740008A1740008A17400083D
S31508000140A1740008A1740008A1740008A17400082D
S31508000150A1740008A1740008A1740008A17400081D
S31508000160A1740008A1740008A1740008A17400080D
S31508000170013800D0FCE7704710B5054C237833B931
S31508000180044B13B1044800E000BF0123237010BDDF
S3150800019008130020000000005098000808B5034B1B
S315080001A01BB10349034800E000BF08BD000000007A
S315080001B00C13002050980008A3F5803A704700BF3A
S315080001C0174B002B08BF134B9D46FFF7F5FF002181
S315080001D08B460F461348144A121A07F070FF0E4B47
S315080001E0002B00D098470D4B002B00D098470020D5
S315080001F0002104000D000D48002802D00C4800E03C
S3150800020000BF04F0D1F92000290007F017FF04F019
S31508000210B7F900BF00000800000000000000000059
S3150800022000100020B8120020642000200000000002
S315080002300000000030B50A4C0A4B22680A4D1A60C5
S315080002400A4B85B02B600A4B019303F06DFA2B68B5
S31508000250029001A92068039307F068FA05B030BD3B
S315080002600C100020541F0020501F002000100020F2
S31508000270C48E000838B503F057FA0446064D2B68B5
S31508000280D3F8300303F044FA286807F063FA2046E7
S31508000290BDE8384003F03CBA0C10002010B5274CD6
S315080002A001F07CFB01F09CFD236F23F0070343F06C
S315080002B00303236707F0BCF9214B00209B6ADB0187
S315080002C05EBF4FF480321F4B9A62D4F8203123F078
S315080002D0070343F00203C4F82031D4F8283123F089
S315080002E0070343F00203C4F82831D4F8403123F059
S315080002F0030343F00203C4F84031D4F8603123F015
S31508000300030343F00203C4F86031D4F8403223F003
S31508000310030343F00203C4F84032D4F8003223F052
S31508000320070343F00203C4F80032D4F8083223F076
S31508000330070343F00203C4F8083210BD00800050DA
S315080003400040005A0060005A4FF480301F49204A86
S315080003504B6E10B55066486E4FF000414AF6CD34E4
S3150800036051661C4903F480334A6C0C6402F001029E
S315080003704C6BE407FCD4012417494C60A1F50051E5
S315080003800C6BE407FCD50AB1144A0A640028A2BF1C
S315080003904FF00041124A51661BB94FF48032104B98
S315080003A05A6603F097F907F02FF803F01DF903F0E2
S315080003B07DF903F041F9FFF771FF03F02BF907F018
S315080003C018F8BDE8104000F015BD00BF00800050C9
S315080003D00090005000400950006009503254FFFF59
S315080003E000A0005030B5244D9DB008AC0FCD0FC409
S315080003F095E80F0084E80F002C22002111A807F0C9
S315080004005EFE1E4B10221093562312930823159353
S315080004100923012417930A234FF4801500210DEBB5
S3150800042002008DF84540199307F049FE144B15480C
S31508000430CDE902530B238DF810300C238DF81130BB
S31508000440114B08AA059320230693104B02A9009383
S3150800045010AB8DF81D4003F073F9044618B17C21E2
S315080004600B4807F026F800214FF4E13007F009F8A9
S3150800047020461DB030BD00BF048F00080000015B98
S315080004803C00015BC4160020701F00206016002087
S31508000490D68E0008014807F060BD00BFC4160020CC
S315080004A01022024BC3F8A020704700BF00D00350AB
S315080004B01022024BC3F8A020704700BF00E003508B
S315080004C070B5404D88B001AC0FCD0FC495E8070054
S315080004D084E80700012401213A2000F0B7FF3A4ECC
S315080004E00121292000F0B2FF384B304601A90393B9
S315080004F08DF8124002F028FB2346214604220220EA
S3150800050002F0F6F8022122460846002302F0F0F827
S31508000510234604220321022002F0EAF80422234695
S315080005201146022002F0E4F8294D2A4B4FF4487090
S31508000530C5F8AC374FF00213C5F8A837A3F58033D2
S31508000540C5F8B0371C23C5F8983703F0A3FC142068
S31508000550FFF7AEFF03F09EFC2320FFF7A1FF03F091
S3150800056099FCB9213046FFF7A3FF07F0BDF8FFF75E
S3150800057097FF002321461A46022002F0B9F8002305
S3150800058002211A46084602F0B3F823460022032140
S31508000590022002F0ADF8234600220421022002F0D0
S315080005A0A7F8304602F0A4FA00212920C5F8AC17AE
S315080005B0C5F8A817C5F8B017C5F8981700F046FF8C
S315080005C008B070BD248F000800C0055000127A00DC
S315080005D000C003500200030008B500F02DF8124BC6
S315080005E012498B4212D30020114B12498B4218D361
S315080005F0FFF7E6FD186850F82240586840F8224090
S31508000600013298688242F5D30C33EAE70022F8E70C
S315080006101C6844F8220001325C68A242F8D3083309
S31508000620E4E70022F8E700BF589800086498000835
S3150800063064980008649800084FF480414FF0FF3032
S31508000640114B124A10B59A60D3F8882042F470020A
S31508000650C3F888200E4A91660E4901F500521066C5
S315080006600D4850660220C3F8D000BFF34F8FBFF382
S315080006706F8F01244FF440330848C0F88041D36097
S3150800068004600B6110BD00BF00ED00E0000000082B
S3150800069000900050008000447FFF7F0100E100E0E9
S315080006A0014B1868704700BF14100020084B1B6FD9
S315080006B003F00703022B04D0032B05D0012B05D02A
S315080006C0FEE7044B18687047034BFBE7034870477F
S315080006D0008000501410002018100020002D310151
S315080006E008B5FFF7E3FF054B1B6FC3F3033301336D
S315080006F0B0FBF3F0024B186008BD00BF0080005045
S31508000700101000200048704700B4C404014B186854
S31508000710704700BF18100020054B1860054B1B6F6B
S3150800072003F00703032B01D1FFF7DABF704700BFB9
S31508000730181000200080005000487047002D310135
S315080007404FF0B4439868C0F304400C2822D8DFE879
S3150800075000F0092121212121071719211B1D1F003E
S315080007600F4870479B6803F04073B3F1807F13D03E
S31508000770B3F1007F12D00B4A002B08BF1046704712
S31508000780094870470948704709487047094870473B
S31508000790094870470020704708487047084870475E
S315080007A0405DC60000093D000024F400C0EA2101AE
S315080007B080BA8C010048E801005A620280841E0053
S315080007C040420F00014B1868704700BF1C100020FC
S315080007D038B504460D4601B118B93721034806F065
S315080007E068FE23682B60256038BD00BF408F00086F
S315080007F070B5D0B1C9B10E4E431E013913F8014F79
S315080008002046A25D02F00302012A11F8012F08BF53
S3150800081004F12000B55C05F00305012D08BF203260
S31508000820801A01D1002CE9D170BD0120FCE700BF78
S31508000830B096000805490A681318054883428CBF14
S315080008404FF0FF320B601046704700BF20100020A3
S315080008500000012008B501213A2000F0F7FD032128
S3150800086001230422002001F043FF002006F03BFF8D
S315080008700122214B4FF46070C3F8442400F012FEA5
S315080008801E4B00F5D520D3F8F02000F2FC4042F0CC
S315080008900102C3F8F020D3F8FC2042F08072C3F8B6
S315080008A0FC20174AA3F55D431A60164B0222B0FBDB
S315080008B0F3F0154B01381861C3F8F0204FF4807235
S315080008C0C3F804234FF06043104A0020C3F8B02F42
S315080008D00F4AC3F8802ED3F8002E42F48072C3F86C
S315080008E0002EFF2283F82020D3F8002E22F48072EF
S315080008F0C3F8002E08BD00BF00D0035000ED00E08D
S31508000900FF030040F8590D00000004E055CEACC5C1
S31508000910090001004FF06043D3F8802E30B5D207A6
S3150800092015D501240B4D8440D5F8FC2042F0807281
S31508000930C5F8FC20D3F8002E2243C3F8002E53F83E
S315080009402020002AF0D003F82010002030BD112006
S31508000950FCE700BF00ED00E02DE9F04F9A46564B44
S3150800096085B01B7806460F461546DDF83C909DF87F
S3150800097044B0DDF85080002B00F08D80072A00F285
S315080009808C800E9B002B00F08880B9F1000F00F0D8
S315080009908480129BB3F5006F7FDC012802D1109B7F
S315080009A0002B7AD0454B03EB05131B7B002B76D027
S315080009B0434C10220021684607F081FB04EB4514DE
S315080009C01022002F59D13946204607F078FB43F20A
S315080009D010036380BBF1000F03D1E37843F00303F0
S315080009E0E370374A0E9B02EB451CCCE90193129B38
S315080009F06901013BC3F30A009DF84C30012E03F050
S31508000A0003034FEA836343EA001E53582D48CDF883
S31508000A1000A000EA03004EEA0003535041D1132315
S31508000A200CF1100ECCF80C309CE80F008EE80F0085
S31508000A306FF00301DCF81C20109B61F39F02012F65
S31508000A40CCF81C20CCF8143003D1CCF81890CCF88C
S31508000A5004300027194A290102EB051342F80180E0
S31508000A60159A28465A60694622469F605E7301F0C9
S31508000A701DFF384605B0BDE8F08F0021204607F077
S31508000A801EFB4FF444736380BBF1000FA9D1E378D2
S31508000A9043F03003A4E70C48ECE70C48EAE70C48B7
S31508000AA0E8E7B8F1000FD4D19CF8023068F30413D4
S31508000AB08CF80230CDE700BF901F0020DC1600201E
S31508000AC05C1700200F80FFF3028000F0018000F021
S31508000AD0078000F038B5124B05461B78DBB1E0B14C
S31508000AE006F0C2FD0F4A00231146147B54B92B6049
S31508000AF001251A0101EB03131D738C5006F0BAFD8C
S31508000B00204638BD0133082B02F11002EDD106F05C
S31508000B10B1FD0548F5E70548F3E70548F1E700BFE5
S31508000B20901F0020DC160020048000F0028000F0F0
S31508000B30018000F013B506F097FD00230B4A147BDD
S31508000B407CB90133082B02F11002F8D1019001F0AB
S31508000B5023FE074B01981C7006F08CFD204602B058
S31508000B6010BD06F087FD0348F9E700BFDC16002034
S31508000B70901F0020058000F00D4B10B51B78044629
S31508000B8093B1072812D806F06FFD0A4B03EB04133E
S31508000B901A7B2AB100241C7306F06CFD204610BD92
S31508000BA006F068FD0448FAE70448F8E70448F6E75B
S31508000BB0901F0020DC160020068000F0028000F05E
S31508000BC0018000F0154B13B51868002301908DF8C5
S31508000BD0043006F049FD124B1C7824B106F04AFD94
S31508000BE0104802B010BD01221A7006F043FD0E4BE4
S31508000BF001A81C731C7783F82C4083F83C4083F8C3
S31508000C004C4083F85C4083F86C4083F87C400823AA
S31508000C108DF8073001F000FE2046E2E76F8F0008E6
S31508000C20901F0020038000F0DC1600200A4A08B551
S31508000C3012785AB107280BD8084A02EB00131B7B17
S31508000C4043B1002101F0C6FD002008BD0448FCE7B9
S31508000C500448FAE70448F8E7901F0020DC1600204D
S31508000C60028000F0018000F0078000F00A4A08B50B
S31508000C7012785AB107280BD8084A02EB00131B7BD7
S31508000C8043B1012101F0A6FD002008BD0448FCE798
S31508000C900448FAE70448F8E7901F0020DC1600200D
S31508000CA0028000F0018000F0078000F00A4A08B5CB
S31508000CB0127852B107280AD8084A02EB00131B7BA0
S31508000CC03BB101F075FE002008BD0548FCE7054864
S31508000CD0FAE70548F8E700BF901F0020DC16002059
S31508000CE0028000F0018000F0078000F00D4B1B78B1
S31508000CF093B1072812D889B10B4B03EB00131B7B62
S31508000D0073B10A4B1A6D012303FA00F010401ABF9B
S31508000D1000200B70087070470548704705487047F3
S31508000D2005487047901F0020DC160020000004507C
S31508000D30028000F0018000F0078000F00B4A10B531
S31508000D4012780C4662B107280CD859B1084A02EB4A
S31508000D5000131B7B43B101F047FE2070002010BD35
S31508000D600448FCE70448FAE70448F8E7901F00201F
S31508000D70DC160020028000F0018000F0078000F0F9
S31508000D802DE9F843174B1F6D5B6D1F4000D5FEE735
S31508000D9001260025144CDFF85480DFF854903742BA
S31508000DA017D02368C8F850609BB1A168284601315E
S31508000DB06268A1609847637B012B0AD148B909EBA1
S31508000DC045131A7B60F341021A731A7F60F34102D6
S31508000DD01A770135082D4FEA460604F11004DED1CC
S31508000DE0BDE8F88300000450DC16002000200450FB
S31508000DF05C170020024B1968024B186805F068BE9C
S31508000E00281000202410002037B5920004460D460D
S31508000E10019207F0A1FF431C0BD060B92946204672
S31508000E20019A07F015F90028044808BF002003B006
S31508000E3030BD0348FBE70348F9E700BF10E000F0C0
S31508000E4021E000F024E000F010B5044607F08CFF1E
S31508000E50431C10D088B901F01DFE234620F003007C
S31508000E602044984201D1002010BD53F8042B0132CA
S31508000E70F7D00348F8E70348F6E70348F4E700BF66
S31508000E800EE000F021E000F024E000F008B506F0DE
S31508000E90E4FB014B186008BD9C1E0020014B186836
S31508000EA006F0DFBB9C1E0020044BD3F88420D20634
S31508000EB0FBD4D3F88400C0F381107047004000507B
S31508000EC038B51A4B0546D3F820010C4600F0070042
S31508000ED0062821D8DFE800F028040C1410181C0096
S31508000EE0FFF7DEFB052305B1286004B1236038BD92
S31508000EF0FFF70CFC0323F6E7FFF722FC0723F2E7CC
S31508000F00FFF71AFC0223EEE7FFF7CAFB0623EAE718
S31508000F10FFF7FCFB0423E6E7054841F2252106F026
S31508000F20C8FA00231846DEE70123DCE700800050F4
S31508000F30988F000838B5194B0546D3F828310C4662
S31508000F4003F00703013B052B20D8DFE803F0031362
S31508000F501B0F0B17FFF7A4FB052305B1286004B187
S31508000F60236038BDFFF79CFB0623F6E7FFF7E8FB8F
S31508000F700723F2E7FFF7CAFB0323EEE7FFF7C6FBF3
S31508000F800423EAE7FFF7D8FB0223E6E7044841F221
S31508000F902D0106F08EFA00231846DEE70080005081
S31508000FA0988F0008F7B50027144B0197D3F88041AE
S31508000FB0064604F00304022C0D4614D0032C0DD06B
S31508000FC0012C14D1394601A8FFF77AFF0F240EB178
S31508000FD0019B336005B12C6003B0F0BDFFF7B0FB91
S31508000FE007240190F3E7FFF7A7FB0190EFE741F22B
S31508000FF07A31034806F05DFA3C46E8E7008000507F
S31508001000988F000838B50F4B0546D3F890320C4632
S3150800101003F00303012B09D0022B0BD1FFF790FB3A
S31508001020072305B1286004B1236038BDFFF784FBA8
S315080010300223F6E7044841F2191106F03AFA0023AA
S315080010401846EEE700800050988F0008002337B551
S315080010500193194B0546D3F820320C4603F00703D3
S31508001060042B1FD8DFE803F025030F14190000210D
S3150800107001A8FFF75FFF11230DB1019A2A6004B199
S31508001080236003B030BDFFF75BFB07230190F3E74E
S3150800109006F009FA0A230190EEE7FFF793FB092306
S315080010A00190E9E740F6EC71044806F002FA0023DD
S315080010B0E2E70123E0E700BF00800050988F0008B0
S315080010C038B5104B0546D3F840310C4603F00303F8
S315080010D0022B0BD0032B0DD0012B0FD106F0E3F911
S315080010E00A2305B1286004B1236038BDFFF76AFBFF
S315080010F00923F6E706F0DAF90B23F2E701230020C5
S31508001100EFE700BF00800050002337B50193184B66
S315080011100546D3F860320C4603F00703013B032B60
S315080011201FD8DFE803F0020E1914002101A8FFF703
S31508001130C7FE0F230DB1019A2A6004B1236003B0DC
S3150800114030BD002101A8FFF7BBFF1023F2E7FFF728
S31508001150F7FA07230190EDE7FFF7EEFA022301906D
S31508001160E8E741F29101034806F0A3F90023E1E715
S3150800117000800050988F000873B500240F4B019427
S31508001180D3F87032064603F00303012B0D4607D049
S31508001190022B11D041F2EF01094806F08AF904E062
S315080011A0214601A8FFF78CFF10240EB1019B33607E
S315080011B005B12C6002B070BD1424F6E7008000501B
S315080011C0988F000838B5164B0546D3F800020C462A
S315080011D000F00700042819D8DFE800F020030B0FF9
S315080011E0130006F060F90A2305B1286004B12360EC
S315080011F038BDFFF7E7FA0923F6E706F057F90B2398
S31508001200F2E7FFF76DFA0E23800AEDE7054841F28B
S31508001210384106F04EF900231846E5E70123E3E7CF
S3150800122000800050988F000838B5164B0546D3F84D
S3150800123008020C4600F00700042819D8DFE800F079
S3150800124020030B0F130006F02EF90A2305B12860B8
S3150800125004B1236038BDFFF7B5FA0923F6E706F0AF
S3150800126025F90B23F2E7FFF73BFA0E23800AEDE791
S31508001270054841F2704106F01CF900231846E5E7D7
S315080012800123E3E700800050988F000838B5104B1B
S315080012900546D3F840320C4603F00303022B0BD065
S315080012A0032B0DD0012B0FD106F0FDF80A2305B14B
S315080012B0286004B1236038BDFFF784FA0923F6E7EE
S315080012C006F0F4F80B23F2E701230020EFE700BF4E
S315080012D00080005038B5124B0546D3F850320C46FC
S315080012E003F00303022B0FD0032B05D0012B0FD1DC
S315080012F006F0D9F80A2302E006F0D8F80B2305B160
S31508001300286004B1236038BDFFF75CFA0923F6E7C5
S31508001310044841F25D0106F0CCF800231846EEE7D2
S3150800132000800050988F000838B5104B0546D3F852
S3150800133060310C4603F00303022B0BD0032B0DD0B0
S31508001340012B0FD106F0AFF80A2305B1286004B1C6
S31508001350236038BDFFF736FA0923F6E706F0A6F844
S315080013600B23F2E701230020EFE700BF00800050BF
S31508001370B0F5207F10B534D009D8B0F5007F2AD053
S3150800138003D898B1B0F5C07F10D0002421E0B0F59D
S31508001390607FFAD1154BD3F88030C3F301149B064E
S315080013A017D5032C15D040F285210FE00F4B1C6F83
S315080013B0230B13F00E0FC4F303340AD0032C08D002
S315080013C0072C06D00F2C04D040F27521084806F0E9
S315080013D070F8601C10BD054BD3F89040C4F3046444
S315080013E0F7E7024B1C6FC4F38024F2E70080005035
S315080013F0988F00084FF4803238B5104B04469A6629
S3150800140000200D46FFF7B4FF41F671320C4B6043DE
S31508001410DC69DA635A6804F4803422F440125DB950
S31508001420084988428CBF4FF480100020104358604A
S315080014300CB10022DA6338BD0349F2E70090005088
S3150800144000000350005A6202002D310170B54409AC
S3150800145005460E460ED14FF447710F4806F029F897
S3150800146005F01F05AEB104F58053012000FA05F515
S315080014701D6070BD012C08D0022C08D040F2263120
S31508001480054806F016F80024EAE7044CE8E7044C99
S31508001490E6E704F50053E8E7988F000864800050F3
S315080014A068800050002130B5B0F5807F85B00446CD
S315080014B0019100F0FE806BD8002800F0DA80A0F1D8
S315080014C02004602C74D8602C72D8DFE814F0D2009F
S315080014D0D500D200D500E800E800E800E800E800FA
S315080014E0D500ED007D0003019D007D00D500D500E7
S315080014F0D5007100710071007100710071007100F2
S315080015000301D500D500D5001B010801D5007100DF
S315080015107100710071007100710071007100710035
S315080015207100710071000D01E800D200D200D200EE
S31508001530B0007D007D00B80012019200C700C70008
S315080015407100710071007100710071007100710005
S3150800155071007100710071007100710071007100F5
S3150800156071007100710071007100710071007100E5
S3150800157071007100710071007100710071007100D5
S315080015807100710071007100710071007100CC006A
S31508001590B0F5E06F00F0A3803BD8B0F5607F75D05A
S315080015A01DD8B0F5007F71D008D8B0F5C07F60D0DF
S315080015B040F27941564805F07CFF57E0B0F5207FA8
S315080015C05AD0B0F5407FF3D1FFF78AF804464FF4B6
S315080015D02070FFF7CDFEB4FBF0F0400845E0B0F50B
S315080015E0B06F61D00AD8B0F5806F58D0B0F5A06F4B
S315080015F0DED1002101A8FFF729FD37E0B0F5C06F5D
S3150800160068D0B0F5D06FD3D1002101A8FFF7DAFD75
S315080016102CE0B0F5286F6CD016D8B0F5186F63D0EB
S315080016200AD8B0F5F06F6DD0B0F5106FC0D10021B3
S3150800163001A8FFF7F9FD19E0B0F5206FB8D1002130
S3150800164001A8FFF761FD11E0B0F5306F56D0AFD3B2
S31508001650B0F5386F3ED0B0F5406FA9D1002101A88A
S31508001660FFF768FC02E0FFF721F80190019805B042
S3150800167030BDFFF735F8F8E7FFF732F804464FF4C0
S315080016802070FFF775FEB4FBF0F0EEE7FFF70EF8F3
S3150800169005462046FFF76CFEB5FBF0F0E5E70021AE
S315080016A001A8FFF70DFCE1E7002101A8FFF77AFC86
S315080016B0DCE74FF0E02302911B695B0705D5FFF7CE
S315080016C00FF80290029B0193D0E703A902A8FFF73F
S315080016D0F7FCF7E7002101A8FFF7F2FCC6E70021AF
S315080016E001A8FFF7D3FDC1E7002101A8FFF7F2FD26
S315080016F0BCE7002101A8FFF73FFDB7E701A8FFF700
S3150800170081FCB3E7002101A8FFF70EFEAEE700BF94
S31508001710988F000808B58020FFF7C4FE034B98424F
S315080017209EBF4FF48032024B1A6708BD005A620208
S3150800173000A000501FB50023B0F5807F019300F08C
S31508001740D68076D8582867D8382805D8243809285E
S3150800175048D940F25A51BEE039381F28F9D801A3B2
S3150800176053F820F0111900085317000853170008FA
S31508001770531700081B1900086119000853170008B9
S315080017805317000853170008531700085317000883
S315080017905317000853170008531700085317000873
S315080017A05317000853170008531700085317000863
S315080017B06B19000859180008531700085317000832
S315080017C0531700089D1800085317000853170008F8
S315080017D0751900087F19000857190008BF1800086E
S315080017E0BF1800080928B4D801A353F820F000BF91
S315080017F059180008591800085918000859180008F7
S315080018005918000853170008DF180008531700086E
S31508001810111900087718000880289AD15D4B1B6FAC
S3150800182003F00703013B032B53D8DFE803F0504DC1
S315080018308890B0F5086F75D022D8B0F5C06F67D01C
S315080018400FD8B0F5A06F00F08680B0F5B06F46D01F
S31508001850B0F5806F7FF47DAF002001A9FFF730FB5C
S3150800186041E0B0F5E06F7BD0B0F5F06F55D0B0F53C
S31508001870D06F7FF46EAF002001A9FFF7A3FC32E01A
S31508001880B0F5286F7BD00ED8B0F5186F6DD0B0F5CF
S31508001890206F6FD0B0F5106F7FF45BAF002001A901
S315080018A0FFF7C2FC1FE0B0F5306F6DD0FFF451AF03
S315080018B0B0F5386F2CD0B0F5406F7FF44AAF0020F2
S315080018C001A9FFF737FB0EE0052301930BE002237E
S315080018D0FBE740F2AB41304805F0EBFD03E00020A2
S315080018E001A9FFF75FFB019805B05DF804FB0293B9
S315080018F04FF0E0231B695B0705D5FEF7F1FE0C23C5
S315080019000393039BE1E703A902A8FFF7D9FBF8E7CE
S31508001910002001A9FFF7D4FBE5E7002001A9FFF79E
S3150800192003FDE0E71B4BD3F8003103F00303022B5A
S3150800193007D0032B09D0012B0BD1FEF7E7FE0323B3
S31508001940C3E7FEF73FFF0923BFE705F0AAFD082313
S31508001950BBE70123B9E7002001A9FFF777FBC2E738
S31508001960002001A9FFF792FCBDE7002001A9FFF7B7
S31508001970B1FCB8E7002001A9FFF7C6FBB3E70020D2
S3150800198001A9FFF7F9FBAEE7184601A9FFF73AFBED
S31508001990A9E700BF00800050988F00084FF4801216
S315080019A0034B5A664FF48032024B9A62704700BF67
S315080019B0009000500050005A036870B50F2B04467B
S315080019C004D940F64631814805F073FD63680F2B4C
S315080019D004D940F649317D4805F06BFDA3680F2B05
S315080019E004D940F64C31794805F063FD237B0F2B6B
S315080019F004D940F64F31754805F05BFD637B0F2B24
S31508001A0004D940F65231714805F053FDA37B3F2BAC
S31508001A1004D940F655316D4805F04BFDE37B3F2B65
S31508001A2004D940F65831694805F043FD2369032B6C
S31508001A3004D940F65B31654805F03BFD6369032B25
S31508001A4004D940F65E31614805F033FDE369032B9E
S31508001A5004D940F661315D4805F02BFD8020FFF77B
S31508001A6069FE032800F091804FF48012584B594DB7
S31508001A705A6645F60E034FF0A062C5F88030564BFD
S31508001A809A624FF4803203F580539A62AB6DDA039B
S31508001A90FCD4AE6D16F08046FBD1D4E900231B05B5
S31508001AA043EA0263E27B4D481343227B43EA02433F
S31508001AB0627B43EA0233A27B43EA82132B61AA695B
S31508001AC0D4E904131B0643EA816302F00042134378
S31508001AD0A27E4FF440611343227E43EA0243627EAC
S31508001AE043EA0223AB614FF4006205F07DFDE1692C
S31508001AF02B6A00290CBF00220822E07E23F00F0380
S31508001B0043EA010343EA800343EA0203314A344DB8
S31508001B1013623BD194F82430916A94F82000DB00D4
S31508001B200D4043EA401394F821102B4343EA01136E
S31508001B3043F4803393622B4B916D33EA0101FBD159
S31508001B404FF08071244881621369A56823F47003F5
S31508001B5043EA055313614FF00043836194F822303A
S31508001B600BB9214B996294F823303BB94FF4803274
S31508001B701D4B9A62174A936D5B00FCD494F8253086
S31508001B801BB1144B194AC3F8802070BD022908D12D
S31508001B9016614FF47F41966115484FF4085205F0D7
S31508001BA023FD0C4994F822308A6A94F820001B0613
S31508001BB0154043EA401394F824202B4343EAC20312
S31508001BC094F8232043EA02438B62D7E7988F0008EC
S31508001BD0009000500040005A0050005A3840005A01
S31508001BE0C7FFFEFE030001000060005AF1A7FFFFD1
S31508001BF03440005A014B93F900007047B01000209A
S31508001C00436810B5072B044604D940F67C512A4888
S31508001C1005F04FFCA368032B04D940F67E512648ED
S31508001C2005F047FC2378032B04D94FF45861224862
S31508001C3005F03FFC94F90130002B04DA40F6825196
S31508001C401D4805F036FC4FF400011C4A63785166BE
S31508001C504FF4D151022002F5B832516218494F2B80
S31508001C6048604FF0010028BF4F2301F580514860B6
S31508001C701169C903FCD4217843EA01235361D4E9E5
S31508001C8001131B0143EA0123617B0B43217B43EAD2
S31508001C9041039360E37BA17B1B0143EA4113617C0B
S31508001CA00B43217C43EA41035360A37C13B16FF4D1
S31508001CB0D153536210BD00BF988F000800900050A2
S31508001CC000100250014B1880704700BFAE1000206C
S31508001CD0014B1880704700BFAC100020B0F5207F7C
S31508001CE010B565D00ED8B0F5007F4FD003D800B335
S31508001CF0B0F5C07F1DD040F2FF21BDE81040344842
S31508001D0005F0D7BBB0F5607FF5D14C1E012C06D97E
S31508001D10042904D040F2E2212D4805F0CAFB2D4AD9
S31508001D20D2F8803023F0300343EA0413C2F8803037
S31508001D3010BD102901F1FF3404D8274B23FA01F10D
S31508001D40CB0704D440F2B621214805F0B2FB05F0D2
S31508001D505CFC05F068FC4FF48031204B1D4A19677E
S31508001D60136F23F4704343EA04331367FEF7B8FC92
S31508001D700446FFF799F8C0F10201204605F04DFC2C
S31508001D8000F03EF8BDE81040FFF7C4BC4C1E1F2CFF
S31508001D9004D940F2F3210E4805F08BFB0D4BD3F81E
S31508001DA0901021F0F85141EA0461C3F89010BFE79A
S31508001DB04C1E012C04D940F2F921054805F079FB9F
S31508001DC0044B196F21F4806141EA84211967AFE752
S31508001DD0988F0008008000501601010000900050FE
S31508001DE008B50121022000F02FF805F00EFC05F0D9
S31508001DF01AFC4FF48032014B1A6708BD0090005058
S31508001E0008B54FF4C070FFF74DFBBDE8084004491C
S31508001E1088428CBF022101214FF42070FFF75EBF74
S31508001E2080F0FA02024A536B0342FCD1704700BFA6
S31508001E3000400950034A0179D36E23F030030B435F
S31508001E40D3667047004000502DE9F0410446264B02
S31508001E50D3F88420D006FBD4D3F88430C3F3811397
S31508001E609C423ED0FEF722FC012C05460BD11F4BA7
S31508001E70984204D940F261711D4805F01AFB012108
S31508001E80284605F0CAFB05F0E8FB4FF00072194B2F
S31508001E9007465A66204605F0F0FB4FF48063124E5B
S31508001EA0621E9340DFF848803367736E9A0103D445
S31508001EB0D6F884309B060AD5384605F0D2FB022CA4
S31508001EC00FD12846BDE8F041002105F0A6BBD6F89B
S31508001ED084309906E9D540F26F71404605F0E9FA73
S31508001EE0E3E7BDE8F08100BF00400050005A6202F7
S31508001EF0C48F00080060005007B518B90191FEF7B5
S31508001F00D5FB0199064B1B7843B1064B984205D879
S31508001F10012003B05DF804EBFFF796BF0220F8E74F
S31508001F20911F0020005A62024FF0004238B5244B38
S31508001F30244C5A664AF6CD33656C014605F0010510
S31508001F40236430BB0120FFF76DFF6368DB0708D405
S31508001F50002415B11B4B1C4A1A6405F08FFB20465A
S31508001F6038BD1A4B58600846194B226BD20705D460
S31508001F70984201D10724ECE70130F6E79842E7D109
S31508001F80F8E70132236B13F0080305D08A42F8D12B
S31508001F90F0E700220E49F5E78A42EBD020210B4AEA
S31508001FA091620121A2F5805251600649084A886A61
S31508001FB0800603D49342DDD00133F8E79342DEE787
S31508001FC000900050004009503254FFFF006009504D
S31508001FD040420F004FF0004238B5164B01465A668C
S31508001FE04AF6CD33144C154A656C236443780B20A6
S31508001FF05B0043F00103D363FFF714FF63688A7835
S3150800200023F4F87343EA02136360CA784B7943EA08
S315080020100223A3600A798B7943EA022323610878AD
S31508002020FFF782FFEB0744BF054B236405F026FB49
S31508002030012038BD00900050004009500040005073
S315080020403254FFFF0F2870B5044604D940F6FC51F8
S31508002050134805F02EFA4FF00042124B12495D6EF6
S3150800206003F580535A664AF6CD334E6C80200B64CE
S31508002070FFF7D8FE0B6A23F00F030F2C94BF2343F8
S3150800208043F00F030B62F30744BF084B0B64002DA4
S31508002090A2BF4FF00042064B5A6605F0EFFA70BD34
S315080020A0C48F000800800050004009503254FFFFDA
S315080020B000A0005010B505F0E6FA042300F580519B
S315080020C000F500520B6113610B6113610B6113611B
S315080020D00B611361202341F2020103610023C360EF
S315080020E0836041614FF4A021836141620449C36161
S315080020F003628362C36243630365D164036310BDED
S31508002100FF3F0D0338B5194B044698420D460BD0D0
S31508002110174B984208D003F58043984204D040F202
S315080021206511144805F0C5F925B92046BDE83840BB
S3150800213005F0A9BA012204F580535A6040F6FF71EA
S31508002140204605F00F0205F09AFAA263782105F0F9
S3150800215096FA05F001036A0748BF43F00203A26C2A
S3150800216002F003029A42FAD138BD00BF0000015BB3
S3150800217000000A50F08F00082DE9F04105460C468C
S31508002180174622B940F22321704805F092F9704BA0
S315080021909D4200F0CA806F4B9D4200F0CB8003F54C
S315080021A080439D4200F0CB8040F22621674805F027
S315080021B080F944B940F27531644805F07AF9204649
S315080021C0FFF770F90446AB68D90744D5BC4204D278
S315080021D04FF40C715D4805F06CF96B6803F0010863
S315080021E0B4FBF7F35C1EFF2C04D94FF40E71574865
S315080021F005F05FF9B8F1000F2BD02821284605F025
S315080022003EFAAB6C9A071ED1AB6CDB071DD4AE6CDD
S3150800221016F002061BD140F245214C4805F049F953
S31508002220284605F030FA2B6923F07F4343EA046316
S315080022302B61B8F1000F00F0878031462846BDE8CB
S31508002240F041FFF75FBF0526EAE70926E8E7062615
S31508002250E6E74646E7E76B68012B04D04FF41671AC
S315080022603A4805F026F9A96801F0E001402946D068
S3150800227009D8B9B1202938D040F29A21BDE8F041F1
S31508002280324805F016B9602945D08029F4D107EB04
S315080022904703A34204D94FF425712C4805F009F9E0
S315080022A0012308E0B7EB141F04D94FF4207127481F
S315080022B005F0FFF810237B436401B4FBF3F3264EC5
S315080022C0203BB6EBC30F4FEAC30404D240F2A52164
S315080022D01E4805F0EEF828463440012105F0CFF9EE
S315080022E02C63BDE8F04105F0CAB9B7EBD40F04D9A1
S315080022F040F28521154805F0DCF80823DBE70626B9
S31508002300B4FBF6F3BB4204D240F28A210F4805F02B
S31508002310D0F83346CFE7B7EB940F04D940F28F21B4
S315080023200A4805F0C6F80423C5E7002C7FF44BAF2E
S31508002330562444E7002C7FF446AF57243FE7002C89
S315080023407FF441AF58243AE7BDE8F081F08F0008E2
S315080023500000015B00000A50F8FF7F00436870B573
S3150800236004460D4616461BB140F6FF7105F087F97F
S315080023702046FFF79FFEE9896B7B62690B43298A32
S3150800238022F44C520B4322F00F0213436361A268F6
S315080023902B7B297E22F0804222F0E2020B43134374
S315080023A06A691343A360AB681BB9A36843F000438B
S315080023B0A360EB69002B5FD0A268197A42EA8152C2
S315080023C0A260A268997A42EA4142A2609A88A16804
S315080023D002F4C0420A43A260A268597842EA81021E
S315080023E0A260A268597B42EAC102A260A268997BF0
S315080023F042EA0112A260A268997842EA8122A260A2
S31508002400DA799979520242EA8122E2601A7802F070
S31508002410FD01012908BFE168A2F1020204BF41F0EB
S315080024200401E160012A3E4A47D8944241D03D4A18
S31508002430944240D03C498C420CBF02214FF0FF31F8
S315080024403A4A49010A44022151605A7A04F58051F0
S315080024508A621AB1E26842F40062E260DA7A5AB134
S31508002460E26842F40042E2602D4A944237D11B7B6F
S315080024702F4A03F00F0353663EB196F8203004F551
S315080024808051002B3ED001230B6205212046FFF721
S3150800249039FEAA681AB120466968FFF76DFE20461C
S315080024A02978FFF72FFEA36CDB4313F4405FFAD1BC
S315080024B070BD0021C4E70121C2E794420BD0194A36
S315080024C094420AD018498C420CBF02214FF0FF31C2
S315080024D0184A4901B6E70021FAE70121F8E7114A47
S315080024E0944209D002F580429442C5D11B7B104A1A
S315080024F003F00F03D367BFE71B7B0D4A03F00F03F7
S315080025001367B9E7E26996F8223096F8210022F0B7
S3150800251009020343134343F00103CB61B5E700BF48
S315080025200000015B00000A5000400A50C0D4035066
S3150800253000900350C0E4035038B52A4B054698422C
S315080025400C4640D08A21284804F0B3FF34B98C21C0
S31508002550254804F0AEFF234B9D4236D09E212248E3
S3150800256004F0A7FF637B032B03D9AA211E4804F0B6
S31508002570A0FF237B802B03D0AC211B4804F099FFD6
S315080025806369B3F1804F03D0AE21174804F091FF79
S31508002590238A23F400539BB2B3F5805F03D0B0219E
S315080025A0114804F086FFA368013BB3F5165F03D311
S315080025B0B2210D4804F07DFF21462846BDE8384083
S315080025C00022FFF7CBBE0029C1D05620FFF7B2F88C
S315080025D0A0F10903022BC5D9A0F11003012BBDD820
S315080025E0C0E700BF0000015BF08F000838B5154B47
S315080025F0044698420D460AD0134B984207D003F575
S315080026008043984203D07021104804F052FF1DB948
S3150800261072210E4804F04DFF2B7B802B03D17621C7
S315080026200A4804F046FF6B7B032B03D97921074838
S3150800263004F03FFF29462046BDE838400022FFF750
S315080026408DBE00BF0000015B00000A50F08F000835
S3150800265038B50D460446B0B1012817D0022817D060
S31508002660032803D13F23EB40DB0704D440F22D4176
S31508002670094804F01EFF302001214443074B01FAA4
S3150800268005F51D5138BD40F2FF73ECE70F23EAE765
S3150800269040F2FF33E7E700BF1F90000840D0035021
S315080026A038B50D460446B0B1012817D0022817D010
S315080026B0032803D13F23EB40DB0704D440F2FE3165
S315080026C0094804F0F6FE302001214443074B01FA7D
S315080026D005F51D5138BD40F2FF73ECE70F23EAE715
S315080026E040F2FF33E7E700BF1F90000840E00350C1
S315080026F02DE9F0410D46174698460446002835D080
S31508002700012836D0022836D0032803D13F23EB40D0
S31508002710DB0704D44FF4B0711D4804F0CAFE37B184
S3150800272029462046B8F1000F28D0FFF791FF0F2160
S31508002730072D04EB440688BFA5F108034FEA0616E1
S31508002740144895BFAB009B0004360C3607FA03F213
S315080027509940304404F0B6FFBFB929462046B8F17F
S31508002760000F0ED0BDE8F041FFF772BF40F2FF73CD
S31508002770CDE70F23CBE740F2FF33C8E7FFF790FF1B
S31508002780D5E7BDE8F041FFF78BBFBDE8F08100BF94
S315080027904C90000830C003504FF480020B4B10B524
S315080027A0C3F88020BFF34F8FBFF36F8F0024FF223B
S315080027B0074B21465C6520209A625C60FEF746FE60
S315080027C02146BDE810402120FEF740BE00E100E0AA
S315080027D000000450072838B504460D4603DD772166
S315080027E0094804F066FE1F2C03D99121074804F016
S315080027F060FE074B074A0120002D18BF134600FA52
S3150800280004F41C6038BD00BF79900008A690000843
S31508002810401004504020045010B5044618B99121C0
S315080028201F4804F046FE23781B0613F0604F03D0BA
S3150800283092211B4804F03DFEE3780F2B03D9A32110
S31508002840174804F036FE01212020FEF7FFFD01217E
S315080028502120FEF7FBFD0122124B5A602278120650
S315080028609A606178A27842EA01429A61FF229A62E6
S3150800287000229A631A644FF000425A654FF0FF32FD
S315080028804FF4800103F500531A65074AC2F8801110
S31508002890E3781B01DBB282F81633116010BD00BF66
S315080028A0799000080000045000E100E02DE9F041AD
S315080028B00126C3B2072805460C46904606FA03F6D3
S315080028C003DDEC21364804F0F4FD1CB9ED2134484B
S315080028D004F0EFFD236823F47C1323F00F031BB1E8
S315080028E0F0212F4804F0E5FDA37A1B0413F47C0FAE
S315080028F004D040F209112A4804F0DBFDE37A1B05EF
S3150800290013F07E6F04D040F20B11254804F0D1FD78
S31508002910237B5B0513F0FE5F04D040F20D112048BF
S3150800292004F0C7FD30201F4F1F4B617B1E65AB00AF
S3150800293000FB0575226803F1A04303F588235A6056
S315080029402966E37AA27A1B0543EA0243227B43EA15
S31508002950425328F00302EB652A6704F085FE7B6D77
S3150800296033437B65237A13B13B6C33433B64637A09
S3150800297013B1BB6B3343BB632279A37943EA0243A2
S31508002980094A93616179E37943EA014307498B610F
S31508002990044B56639E64BDE8F04104F06BBE00BF6D
S315080029A079900008000004500020045000100450DC
S315080029B010B50124C3B2072804FA03F404DD40F273
S315080029C09711074804F075FD04F04EFE054B5A6D45
S315080029D022EA04025A659C62BDE8104004F04ABE29
S315080029E0799000080000045010B50124C3B20728E6
S315080029F004FA03F404DD40F2B5110A4804F059FD5F
S31508002A0004F032FE084BDA6A224209D15B6B34EADB
S31508002A1003030CBF0124002404F02CFE204610BD3D
S31508002A200024F9E779900008000004504FF480323A
S31508002A30054B9A6641F6713203F51C33DA630122B7
S31508002A4003F50053DA6070470090005041F6713282
S31508002A500121064BDA6303F50052D1600022DA63DE
S31508002A604FF48032A3F518339A6670470000035076
S31508002A704FF48032064B5A6603F5E6239B69C3F387
S31508002A808512827003F03F021B0B42700370704779
S31508002A90009000500120034B9B680A3303F01F0384
S31508002AA0984070470080E00F70B506460C461546FC
S31508002AB022B940F28E210C4804F0FBFC24B94FF4ED
S31508002AC02070FEF7EFFC04466D00013CB4FBF5F4FC
S31508002AD0064B250213EA042304D040F2B321024828
S31508002AE004F0E7FCF56170BDFE900008070080FF62
S31508002AF0124B10B59842044604D040F242411048A1
S31508002B0004F0D7FC012104F58053596040F6AA6306
S31508002B1041F20502636100230A48A360E365E260A7
S31508002B2004F500522361E361E36490640348A365F6
S31508002B30844204BF23656365516010BD00C005501B
S31508002B40FE900008FFFF010038B52D4B0446984259
S31508002B500D4604D040F269312A4804F0AAFC204602
S31508002B60FFF7C6FF0122A97B04F580535A602A8A1B
S31508002B70A368002914BF4FF48061002142F00102C6
S31508002B8013432A7D0B43002A14BF4FF0005200223C
S31508002B90A360A3681343A360AB7C5BB1184B9C424C
S31508002BA002BFEA7CA3F51033C3F8D421E36D43F0E2
S31508002BB08003E3652B7B2046D5E9011243F4805355
S31508002BC0E360FFF771FF6B7B0BB1102363616B7DCD
S31508002BD01BB1A36843F48033A360AB7D1BB1A36824
S31508002BE043F40043A360EB7D2A7E1B07120503F01E
S31508002BF0E04302F4E0021343A3652B78636138BD12
S31508002C0000C00550FE90000810B54FF44F72002121
S31508002C10044605F054FA4FF48073C4F80C31064B99
S31508002C2004F58E70C4F80431012384F80831BDE830
S31508002C30104004F03FBC00BF2C91000810B5D0F836
S31508002C4020410A4674B904F010FF044640B12D2805
S31508002C5096BF074B074953F82010074805F056F862
S31508002C60204610BDD0F824111046A0470024F7E7E7
S31508002C70D89100082F9100083D91000890F800317E
S31508002C8070B504460BB1002070BD04F03AFD00286B
S31508002C90F9D1012384F8003194F8083133B184F866
S31508002CA00801D4F80411164805F030F84FF0FF363D
S31508002CB0D4F834536A1C1CD0C4F83463204604F094
S31508002CC01DFD2046E9B200F0A7FB0028F0D02046FB
S31508002CD004F019FD94F8080138B1D4F8041108482D
S31508002CE005F014F8002084F80801002384F8003160
S31508002CF0CAE704F0F0FF431C0546DFD10120F4E7DC
S31508002D0016930008F8B50B780546302B0E4617467D
S31508002D1004D14B7803F0DF03582B12D02A49721ED0
S31508002D2012F8014F002C38D10A222146304601F00C
S31508002D30D3FE202D03460A4634D1631A5842584119
S31508002D4017E04A1C204912F8013F9BB9304605F0A6
S31508002D50C8F91E4B02382B40032B15D16B1C48BFF4
S31508002D602B1D9B1083420BD1B07837288CBF0020CF
S31508002D700120F8BD5B5C13F04403E4D11846F8E77C
S31508002D80CCBF01200020F4E7002DB8BF0335B0EB17
S31508002D90A50FD4BF01200020EBE7635C13F0040302
S31508002DA0BED1EBE727B1084302D0013B61F100022F
S31508002DB0012000FA05F5013D1D40002A08BF9D4285
S31508002DC018BF0020D5E700BFB096000803000080B2
S31508002DD070B503787B2B16D10546022100220B4ECF
S31508002DE015F8014F7D2C05D1435C63B9D04300F03B
S31508002DF0010070BDA35D13F0440302D00132013116
S31508002E00EEE7202CFBD00020F3E700BFB0960008C1
S31508002E1070B506460D4605F064F90446304604F0DA
S31508002E2075FF044EAC4200D370BD304604F06EFF09
S31508002E300134F7E7189800082DE9F84F04460221EF
S31508002E405048FFF7E5FF1E212068FFF7E1FF63689A
S31508002E50586804F05BFF4C4804F058FF67683B7BF2
S31508002E60FD2B12D8D7F808804FF0FF36404605F0FC
S31508002E7038F90546DFF80C91DFF86CA1DFF844B1A4
S31508002E800C3717F8013BFF2B01D1BDE8F88F212B32
S31508002E9017D8212B33D8DFE803F06D736F11181A92
S31508002EA01C1E323232323232323220222426282A6C
S31508002EB02C2E32323232323232326930334C1DB332
S31508002EC01FE0FE2B5AD0324CF9E7324CF7E7324C6A
S31508002ED0F5E7324CF3E7324CF1E7324CEFE7324C88
S31508002EE0EDE7324CEBE7324CE9E7324CE7E7324C98
S31508002EF0E5E7324CE3E7324CE1E7324CDFE7244CB6
S31508002F0005B10136202BBCD002214846FFF780FFC9
S31508002F101E214846FFF77CFF504604F0F7FE594647
S31508002F20204605F0D4F82849002818BF2146274826
S31508002F3004F0ECFE3B78202B02D12B2004F0DAFEBD
S31508002F40234804F0E3FE4DB118F806301F2B05D0D0
S31508002F5018F806001F2801D0AE4203DB0A4804F021
S31508002F60D5FE8EE704F0C6FE0136F1E7002D88D0BF
S31508002F70184CC6E7184CA2E7184CA0E7184C9EE771
S31508002F80184C9CE71D930008EC940008A6920008CC
S31508002F9090920008FB920008AC920008ED92000897
S31508002FA0E9920008E0920008D6920008CC92000840
S31508002FB0E1920008D7920008CD920008C292000854
S31508002FC0BB920008B2920008A39200081693000864
S31508002FD00393000898920008A5920008AB9200088F
S31508002FE0F4920008FA920008019300082DE9F04FC0
S31508002FF095B00546884691460026049305F071F873
S315080030001E9F049B07901E6028463E600CAA0BA9CB
S3150800301004F09DFE0446002840F0C2800C9805F096
S3150800302060F82646049B01941860D5F81C31039372
S31508003030039B1BB9204615B0BDE8F08F039B9B6820
S315080030400293002B77D02E4416F8013B202B13D081
S3150800305000260C237343029AD15802EB030B00296E
S3150800306064D00B9B019A069393425FDB9BF808306A
S3150800307033B106F1010A3FE03B6801333B60E3E701
S315080030803B68D5F8142114A8D21A049B05911A6036
S31508003090019B00EB830353F8203C1846099305F07F
S315080030A028F882460028E4D105990846089105F0D3
S315080030B018F8DBF80430024693F80CC00593BCF107
S315080030C0FE0FD7F800B0DDE908131AD1069800F10B
S315080030D0FF3E0198864514D0059A184612680BF1EA
S315080030E0010B029204F0FDFF584438603B68EA5C25
S315080030F022B1019B013301935646AAE701333B608F
S31508003100F4E7D5F814310991A3EB0B03934208921F
S3150800311021DC404604F0E5FF089A09991044FB288B
S315080031200DD9494640461F4A04F0E7F9079BEA18B5
S315080031302B4693422DD1039B1B68039378E70A46D7
S315080031404046494604F0D9F949464046164A0134EC
S3150800315004F0D3F98DE7BCF1FE0F8AD1069B019ADC
S31508003160013B934285D1059BD3F800A05AF80C2B56
S3150800317022B9079B3B60049B1A60D7E7494640463D
S3150800318004F0BBF949464046074A04F0B6F901344B
S31508003190ECE7197811B94FF0200119700133C8E727
S315080031A0344647E706930008189800082DE9F047C3
S315080031B0002486B01C60DDE90EA8064689468AF812
S315080031C000401168154888F8004017461D468DF8D6
S315080031D01740FDF70DFB18B901242B6801332B6046
S315080031E00020D6F81C6136B914B1012388F80030DE
S315080031F006B0BDE8F087B06868B14B460021CDE956
S3150800320002A8CDE900750DF1170204F0CAFB9DF876
S315080032101730002BE8D13668E5E700BF0B930008A6
S315080032202DE9F04700260446ADF5C26DFC2231466D
S3150800323005A80DF10808049604F041FF4FF48072C2
S315080032402046CDF8008003AB04A9FFF7CFFE01287E
S315080032503ED104A804F045FF0399D8F80030471A70
S315080032600B44234427EAE777054604A801443A466F
S31508003270184604F0FDFEC655D4F81061039BD8F82D
S315080032800010D4F810211944B14212DCD4F81411F4
S31508003290E81A0244C4F81021014404AAC4F8141117
S315080032A0D41825182B1B002B0DDC0DF5C26DBDE8B7
S315080032B0F087A05C04F01EFDD4F810310136013306
S315080032C0C4F81031DAE714F8010B04F013FDE9E746
S315080032D0EBDD44AD4FF480723146284604F0EFFE2C
S315080032E084AB4FF480621846314604F0E8FE0DF1CF
S315080032F0100A034652464FF0010912F8017B002FC7
S3150800330048D143F8296004A804F0EBFE29463B4659
S315080033101AF8016B84AF57F8042B824243D1013364
S31508003320994501F8016BF3DAD4F81061039BB342AF
S3150800333042DC2346364A04A9364804F0E7FC284608
S3150800334004F0CFFE039ED8F8007035443744861B38
S3150800335026EAE672E3191744E01904F588718842EB
S315080033604FD904F58C718B424BD218466A1E9919AF
S315080033700B1A002B39DD12F8013F00F8013BD4F88F
S3150800338010310133C4F81031D4F814310133C4F8BC
S315080033901431EDE7202F06F1010604BF43F8296032
S315080033A009F10109A9E70DF1100C6244D25CB24299
S315080033B0B1D00022EA54B7E7D4F810310136E05C00
S315080033C004F098FCD4F810310133C4F81031ADE795
S315080033D0D4F81021013B0132C4F81021D4F8142185
S315080033E00132C4F81421002BF2DC00232E44E355E5
S315080033F0731B002B7FF759AF15F8010B04F07AFC05
S31508003400F6E71846294604F033FE3346EBE700BFD5
S315080034102C910008109300082DE9F843D0E944568A
S3150800342004460F46002294F81831012B06D10A2FBC
S3150800343006D1002084F81801BDE8F88300F2A080C0
S315080034401B2F03D1022384F818313BE0A7F10D02A4
S3150800345053425341082F84F8183135D1002D30DDF9
S31508003460B5420FD1384604F045FC202004F042FC52
S31508003470384604F03FFC0023013D6355013EC4E98C
S3150800348044561FE0FBDA05F1FF38384604F032FCF3
S3150800349004EB0803A6EB08026119184604F0F5FDCB
S315080034A000220146A2554E48013E04F02FFC35463F
S315080034B0454501DC4546E2E7082004F01BFC013DD2
S315080034C0F6E7DCD10020B7E77F2F1CD1002EF9DD07
S315080034D0B542F7DA6319691C721B2144184604F0D1
S315080034E0D4FD00220146A2553E4804F00FFC0820F0
S315080034F0013E04F0FFFBB542F9D1D4F81431013B83
S31508003500C4F81431DEE70D2F01D00A2F0AD10D2099
S3150800351004F0F0FB0A2004F0EDFB00230120C4E9C7
S31508003520443389E7092F03D12046FFF779FEC9E717
S31508003530D4F80C31013BB342C4DDB54204EB0508AF
S3150800354005F101090CDB384688F80070D4F8143107
S31508003550C4F810910133C4F8143104F0CBFBB1E779
S315080035604146721B04EB090004F08FFD404604F047
S31508003570CDFB0820013E04F0BDFBB542F9DDE2E7CC
S31508003580022B06D15B2F01D103235CE784F81821AF
S3150800359049E7032B96D1413F84F81821032F91D888
S315080035A0DFE807F002070A150121204604F04AFB66
S315080035B088E74FF0FF31F8E7B54283DA605D04F03B
S315080035C099FBD4F810310133C4F810317AE7002D8D
S315080035D07FF778AF013D0820C4F81051BDE700BF5A
S315080035E0199300081E93000807B5094B18689A88AE
S315080035F09B7900906846ADF804208DF80630FEF7F2
S31508003600E9FC0620FEF71EFD002003B05DF804FB6A
S315080036102293000813B50024064A6846536F43F000
S315080036200103536700948DF80440FEF703FC204617
S3150800363002B010BD0040005030B58BB06C46174D37
S315080036400FCD0FC40FCD0FC495E8030084E803001F
S31508003650134BD3F84C21120318D4D3F85041E4B2D3
S315080036608DF81940FEF7C6FA204480F308008DF855
S3150800367018000C48FDF750F86846FEF79DF94FF418
S31508003680FA70FEF725FB00200BB030BD064B1C88F0
S315080036904FF6FF739C4208BF6A24E1E72C930008A3
S315080036A00080E00FC01753020001E00F30B5084D47
S315080036B087B001AC0FCD0FC42B6801A82360FEF7B5
S315080036C09FFA6420FEF7FEFA002007B030BD00BF5F
S315080036D0549300086FF00402502110B50A480B4CA9
S315080036E012F0800FD3B21BBF03F00F03043BA318DD
S315080036F01B1802F101020CBF83F8001319764C2A35
S31508003700EED1002010BD00BF00ED00E000E100E0B2
S3150800371010B5044603F0A1FF024B1C6003F0A1FF9D
S31508003720002010BD581F002010B503F096FF034B6C
S315080037301C6803F096FF204610BD00BF581F0020E6
S315080037402DE9F0438BB01C4606AB0646894618465B
S31508003750174600211022129D04F0B1FC2279034677
S315080037600AB18DF818204FF00108FB6163793046DD
S31508003770002B14BF43460223CDE90333774B4A4651
S315080037800293774B2946019300230093754B8DF8D6
S315080037901E8000F003FB0646002840F0B080A368B0
S315080037A04146EB63E3693A20EB64237E85F84830AB
S315080037B063696B64237C85F84030636A6B6594F8AB
S315080037C0203085F85030E36AEB6594F8283085F8A0
S315080037D058302368AB63FDF739FE43460422616916
S315080037E0207CFEF785FF43460222E169207EFEF72C
S315080037F07FFF3E7085F860604146A068FDF726FEAB
S315080038006379002B33D141463620FDF71FFEA368A6
S31508003810562B02D0B3F5A06F08D1534AD2F82032FE
S3150800382023F0070343F00303C2F820323946206821
S31508003830FEF782FE1020E1684C4B01F1260203EBED
S3150800384042125060227C606903EB411342EA00424F
S31508003850C3F8DC24E169227E42EA0142C3F8D42493
S315080038602379032B77D8DFE803F041244E6E3E4ACE
S31508003870D2F8283123F0070343F00103C2F82831B0
S31508003880A368562B02D0B3F5A06F07D1D2F8203221
S3150800389023F0070343F00103C2F8203239462068B3
S315080038A0FEF7A4FE95F8603043F0040385F860300F
S315080038B0C0E7002795F8603043F0010385F86030CB
S315080038C000230222616A94F82000FEF711FF616A5C
S315080038D094F82020E36842EA014241F2CC415B01B8
S315080038E003F1A04303F570335A5097B90422AB6B22
S315080038F0052103F5805320681A65FEF703FC304658
S315080039000BB0BDE8F08395F8603043F0020385F804
S31508003910603000230422E16A94F82800FEF7E8FEE6
S315080039200220E168114B01F1A60203EB421203EBF8
S31508003930411341F2D041506094F82820E06A42EAE7
S3150800394000425A50D2E795F86030012743F0030346
S3150800395085F86030B4E72326D1E700BFAF7E0008BC
S315080039601F7F00084F7F00080080005000C00350EA
S3150800397010B50020144604F05EFA18B1BF210248BB
S3150800398003F097FD204610BD68930008034B0222FA
S31508003990186800238068194600F0B8BE4810002051
S315080039A0302238B5037A0446534303F1A04303F59E
S315080039B08023DD6ED0E9032313449D4201D8AA4231
S315080039C004D94FF43E71054803F073FDD4E90303A7
S315080039D003449D4218BF284638BD00BFB39300086C
S315080039E030B51446054687B01046FFF7D9FF636918
S315080039F0024683423CBFD4E903315B181B1AABB1BC
S31508003A001249284603910021CDE901310123049486
S31508003A100093D4E9001303F09CFD20B14FF43471F0
S31508003A200B4803F046FD002007B030BD0122627640
S31508003A3094F82D20002AF6D084F835301321E3694E
S31508003A40204698472046636A9847ECE7E13900081C
S31508003A50B39300082DE9F04788B004468846174610
S31508003A60994603F001FE8246002F00F0AB80237EC4
S31508003A7003F0FF02002B00F0DE802046FFF790FFE0
S31508003A8063690546984206D1637E23B940F27F31C1
S31508003A906A4803F00EFD6669B5429CBFD4E9035235
S31508003AA0AD18AD1BBD4228BF3D4603F0DDFD94F8B9
S31508003AB02D300646002B40F096802A46404661691E
S31508003AC004F0D6FA63692F462B4463612CE06069DB
S31508003AD0037803F0FD01112940F08280216B8842AA
S31508003AE005D1A3F111014B424B4184F83430013F13
S31508003AF06369216B01328B4203F1010308BF23631B
S31508003B0063619542E3D1D4E90323216B13449942B7
S31508003B1008BF2263216B8A4201D88B4204D84FF42E
S31508003B206D71464803F0C5FCD4E903236169134463
S31508003B30994208BF626161698A4201D88B4204D8FA
S31508003B404FF471713D4803F0B4FC0023207A637684
S31508003B50FDF76CF820B140F21131384803F0A9FCA2
S31508003B602046FFF71DFF636983423FD10023E568BE
S31508003B70237694F82D30656103B125632046636A80
S31508003B8098472F4B2A4603930023029323692168FB
S31508003B9001930123207A00930494636803F0D9FC07
S31508003BA020B140F22D31254803F083FC207AFDF739
S31508003BB05DF820B140F25131204803F07AFC3046D6
S31508003BC003F058FD5046C9F8007003F053FDD9F8C4
S31508003BD00030002B0CBF1B20002008B0BDE8F08782
S31508003BE008F8013B84E72F4600228AE70123207A5A
S31508003BF023760DF11E01FDF7A1F820B14FF450719F
S31508003C000E4803F056FC9DF81E30002BCED0207AC5
S31508003C100DF11F01FDF76AF820B140F24631074859
S31508003C2003F047FC9DF81F100029BFD12246207AD1
S31508003C30FFF7D6FEBAE71746C4E700BFB3930008F6
S31508003C40E139000870B504460568FFF76DFD844242
S31508003C5002D10020FFF75CFD95F93630002B11DB09
S31508003C60012203F01F015B099B0003F160438A40B0
S31508003C7003F56143C3F88021C3F88020BFF34F8F53
S31508003C80BFF36F8F287AFDF711F820B14FF4ED7165
S31508003C90104803F00EFC287AFCF76EFF20B14FF4AB
S31508003CA0EF710C4803F005FCFCF744FF38B10A4BEA
S31508003CB0984204D04FF4F171064803F0FAFB00234A
S31508003CC02846C4E90033C4E90433A360AB6ABDE8F7
S31508003CD070401847B3930008058000F02DE9F843B3
S31508003CE004460D4690F82C80DFF8AC908E18B54245
S31508003CF028D094F82D3083B103F0B6FC237E07460E
S31508003D001BBB226B63699A4204D040F2F9114846FC
S31508003D1003F0CFFB384603F0ADFC94F83430002BA3
S31508003D20E5D0B8F1000F06D02B780A2B03D10D2168
S31508003D302046E36998472046E36915F8011B98472A
S31508003D400028D4D00020BDE8F8832046FFF728FED7
S31508003D50E1680138884238BF2069D4F830C03CBFD2
S31508003D6000F1FF30401803469C450BD013F8012993
S31508003D70112A01D0132A07D1A2F111035A425A4136
S31508003D8084F834202063C5E7994282BF236903F18A
S31508003D90FF335B18E8E700BFB3930008F0B50C469D
S31508003DA00646154687B03822002120461F4604F0ED
S31508003DB086F995E8030000232A692376EB6884E8E8
S31508003DC00300C4E904232A7DE36084F82C20AA7D35
S31508003DD02363012384F8343084F835300C9B84F847
S31508003DE02D2023620D9BE76163620E9BA3622B7AEB
S31508003DF084F83630204B34607360204BB360204B18
S31508003E003361204B7361204BF360FCF7DBFE30B166
S31508003E101E4B984203D01024204607B0F0BD00215F
S31508003E2004F10800FCF756FE0028F4D10127184BC8
S31508003E300494CDE902032369009701936368E26855
S31508003E402168207A03F085FB04460028E3D195F91A
S31508003E500830002B0BDB03F01F025B099B0003F104
S31508003E606043974003F56143C3F880711F6030468D
S31508003E70FFF74EFCD0E700BFDD3C0008553A0008C6
S31508003E800180000807800008453C0008038000F010
S31508003E90E139000810B50446FCF722FC4FF47A72A3
S31508003EA09042B0FBF2F105D23621BDE810400C482D
S31508003EB003F0FFBA0B4BB3FBF1F30B49884201D968
S31508003EC03C21F2E702FB04F0B0FBF3F0022806D926
S31508003ED0BDE810400323B0FBF3F0FCF749B910BD69
S31508003EE0F493000840420F00E7CD9A3B13B5104CF7
S31508003EF06A460A21206801AB03F02AF810B9009B2C
S31508003F00012B04D000220A21206802F04FFF6A46DE
S31508003F100B21206801AB03F01BF810B9009B012B9D
S31508003F2004D000220B21206802F040FF02B010BD29
S31508003F3024100020092873B5044605D9124802B092
S31508003F40BDE8704000F0DABB0846019104F0C9F8F4
S31508003F50CC280346019A01D90C48F0E70C4E2146B5
S31508003F60306802F08BFE054658B92146094800F02C
S31508003F703FFB2A460A21306802B0BDE8704002F0CD
S31508003F80A1BF0548DBE700BF2C9400083994000858
S31508003F9024100020579400087094000837B5D0E91B
S31508003FA0023253F822301968092905D90D4803B099
S31508003FB0BDE8304000F0A2BB0B4D0191286803F024
S31508003FC00DF8044658B90199084800F011FB224635
S31508003FD00B21286803B0BDE8304002F073BF0448DF
S31508003FE0E5E700BF2C9400082410002084940008FC
S31508003FF09E94000830B50928014685B005D91548AC
S3150800400005B0BDE8304000F079BB134D03AB019015
S3150800401002AA286802F09CFF029B0199034304D078
S315080040200E4800F06BFB05B030BD0D4C039B2246D5
S315080040302868019102F06CFE019948B9039BE05487
S31508004040084800F0D5FA2146074800F0D1FAEAE711
S315080040500648FAE72C94000824100020B2940008B9
S31508004060921F0020D4940008AF950008EE9400082B
S315080040702DE9F047092300243D4D90B000930A220C
S315080040802346286806A9059404F0BAFC06460028C3
S3150800409031D1384800F032FB09230A2200932868F8
S315080040A0002306A904F0A3FC0646002832D13248AC
S315080040B000F024FB0B21286805AA02F0C3FE18B9F4
S315080040C005992E4800F094FA00220B21286802F080
S315080040D06DFE0A21286805AA02F0B4FE18B90599EA
S315080040E0274800F085FA00220A21286802F05EFEB9
S315080040F010B0BDE8F087234800F000FBDFF8908099
S3150800410006AF404657F8041B013400F071FAA64280
S31508004110F7D1C1E71C4800F0F1FA0027DFF86C80F8
S31508004120DFF87090DFF870A006AC03AB54F8041BF8
S31508004130286804AA02F00CFF049BABB94246039B0D
S3150800414054F8041C286802F0E3FD18B1DA21504639
S3150800415003F0AFF90022039B484608F8032054F8F9
S31508004160041C0A4A00F044FA0137BE42DDD1A1E731
S31508004170241000201095000856950008B4950008EC
S31508004180E79500082A9500086F950008921F0020F9
S315080041904E950008A89500089D95000808B505489D
S315080041A000F0ACFA044B186802F054FFBDE808406A
S315080041B0FFF79CBE1A9600082410002008B5FCF7E5
S315080041C019FE20B140F20711064803F072F9FFF70D
S315080041D08DFE054800F092FABDE80840034800F055
S315080041E08DBA00BF9D9500083C96000866960008A3
S315080041F038B5154C2378C3B101201449FFF79AFE48
S3150800420002201349FFF796FE12490320FFF792FE94
S31508004210002301202370FFF7EDFE0220FFF7EAFED8
S315080042200320FFF7E7FEFFF723FF0B4C0B4D206833
S3150800423004F0EFFB00B938BD284600F05FFA2068A5
S3150800424002F028FFF3E700BFB11000208D960008A2
S315080042509396000899960008241000209D96000859
S3150800426053B94AB9002908BF00281CBF4FF0FF31CF
S315080042704FF0FF3000F082B9ADF1080C6DE904CEBD
S3150800428000F006F8DDF804E0DDE9022304B0704723
S315080042902DE9F04F099D04460F46002B48D18A4266
S315080042A0944661D9B2FA82F343B1C3F120019F4023
S315080042B002FA03FC9C4020FA01F10F434FEA1C4125
S315080042C01FFA8CFE220CB7FBF1F601FB167706FBEC
S315080042D00EF042EA0742904208D91CEB020206F1A8
S315080042E0FF3702D2904200F237813E46121AA4B234
S315080042F0B2FBF1F001FB102200FB0EFE44EA024479
S31508004300A64508D91CEB040400F1FF3202D2A645E3
S3150800431000F21C81104640EA0640A4EB0E04002673
S315080043201DB1DC400023C5E900433146BDE8F08FE6
S315080043308B4209D9002D00F0FD800026C5E9000151
S3150800434030463146BDE8F08FB3FA83F6002E4BD1DE
S315080043508B42C0F0F280824240F2EF803046002D58
S31508004360E3D0C5E90047E0E702B9FFDEB2FA82F317
S31508004370002B40F09D80891A4FEA124E97B201260B
S31508004380200CB1FBFEF20EFB121140EA014107FBBD
S3150800439002F088420FD91CEB010102F1FF382CBF4D
S315080043A04FF001094FF00009884203D9B9F1000F0F
S315080043B000F0CF804246091AA4B2B1FBFEF00EFB0C
S315080043C0101100FB07F744EA0144A74208D91CEB81
S315080043D0040400F1FF3102D2A74200F2B480084675
S315080043E0E41B40EA02409BE7C6F12007B34001FA06
S315080043F006F422FA07FCF940B2404CEA030C20FA0C
S3150800440007F34FEA1C491C431FFA8CFE00FA06F311
S31508004410200CB1FBF9F809FB181140EA014108FB29
S315080044200EF088420FD91CEB010108F1FF3A2CBFA8
S315080044304FF0010B4FF0000B884203D9BBF1000F78
S3150800444000F08D80D046091AA4B2B1FBF9F009FB39
S31508004450101100FB0EFE44EA01418E4507D91CEBFC
S31508004460010100F1FF3401D28E457FD8204640EA8B
S315080044700840A1EB0E01A0FB029841454C46C646F2
S3150800448002D306D14B4504D20138B9EB020468EBD6
S315080044900C0E002D70D01A1B61EB0E0122FA06F3E2
S315080044A001FA07F7F14000261F43C5E900713CE70A
S315080044B002FA03FCC3F1200001FA03F221FA00F61E
S315080044C04FEA1C4E24FA00F11FFA8CF79C40114360
S315080044D0B6FBFEF00A0C0EFB106642EA064200FB2B
S315080044E007F696420ED91CEB020200F1FF382CBFE4
S315080044F04FF001094FF00009964202D9B9F1000FB1
S3150800450031D04046921B89B2B2FBFEF60EFB16224C
S3150800451041EA024106FB07F28A4207D91CEB010170
S3150800452006F1FF3801D28A4223D84646891A46EA56
S31508004530004625E72E462846F7E6841A61EB03036C
S3150800454001201F460BE76444023849E764440238F1
S31508004550E1E6023A61442EE7023E6244C6E6A8F165
S31508004560020861446FE702386244CBE702386144C7
S315080045707DE7023E6144D9E72E46D6E6704700BF7E
S3150800458008B5074B044613B1002100E000BF054BF0
S315080045901868836A03B19847204603F019FD00BFDF
S315080045A000000000B097000870B50D4D00260D4CB0
S315080045B0641BA410A64209D10B4D00260B4C04F02F
S315080045C0BFFB641BA410A64205D170BD55F8043B79
S315080045D001369847EEE755F8043B01369847F2E767
S315080045E0B0120020B0120020B0120020B412002031
S315080045F00FB40A4B13B51C6824B1A36913B9204636
S3150800460000F0D0FC05AB049AA1682046019300F09F
S315080046106FFE02B0BDE8104004B070474810002095
S3150800462070B50E46054618B183690BB900F0BAFC99
S31508004630AB69AC6813B9284600F0B4FC2C4B9C4215
S3150800464020D16C68636EDB0705D4A389980502D46C
S31508004650A06D03F098FDA38919071DD52369DBB161
S31508004660013EA36816F8011F013BA36039BB002B66
S3150800467038DA22460A21284600F0CCFA013011D051
S315080046800A2511E01B4B9C4201D1AC68DAE71A4BAC
S315080046909C4208BFEC68D5E72146284600F00CFB8B
S315080046A00028DDD04FF0FF35636EDA0705D4A389FD
S315080046B09B0502D4A06D03F067FD284670BD002B4C
S315080046C004DAA2699A4206DC0A2904D023685A1C2D
S315080046D022601970C5E72246284600F09BFA013089
S315080046E0BFD1DFE723680A255A1C22601D70DBE765
S315080046F0D4970008F4970008B4970008024B0146BF
S315080047001868FFF78DBF00BF481000202DE9F74352
S315080047101D465C4B04460E461F68904627B1BB698A
S3150800472013B9384600F03EFC574B9C4267D17C686B
S31508004730B8F1020F06D0B8F1010F00F29E80002DE5
S31508004740C0F29B80636EDB0705D4A389980502D463
S31508004750A06D03F018FD2146384600F0A5FB616BF5
S3150800476041B104F14403994202D0384600F0E0FC16
S31508004770002363630023A3616360A389190603D535
S315080047802169384600F0D4FCA389B8F1020F23F456
S315080047904A6323F00303A3816BD001AB6A46214623
S315080047A0384603F0F2FCA3891843A081002D30D1C6
S315080047B0009D284600F0B4FC0646002854D1DDF8D2
S315080047C00090A94549D14FF0FF350022B4F90C30C5
S315080047D0A26004F1470243F002032260226101222B
S315080047E0A3816261626ED20705D413F4007F02D1F9
S315080047F0A06D03F0C9FC284603B0BDE8F083234B3F
S315080048009C4201D1BC6893E7214B9C4208BFFC68D7
S315080048108EE7002ECDD0BB6913B9384600F0C2FB2F
S31508004820B8F1010F266002BFA38943F00103A381F3
S31508004830A28912F00803C4E904651CD0D30745BF52
S3150800484000236D42A560A36048BFA561656E15F09B
S31508004850010515D112F4007FC9E7484600F060FC4F
S3150800486006460028AFD04D46A38943F08003A381AE
S31508004870D1E70025A9E7A360E8E74FF0FF35BAE7D7
S315080048800025B8E748100020D4970008F4970008D8
S31508004890B4970008012B2DE9F04701D0242B06D93F
S315080048A000F078FA162303600020BDE8F0870D466D
S315080048B0DFF8E0C02E4615F8014B14F80C7017F017
S315080048C00807F7D12D2C32D12C780127B51C002BDF
S315080048D05BD0102B09D1302C07D12C7804F0DF04DB
S315080048E0582C4DD16C781023023507F100484FF04B
S315080048F0000C08F1FF386646B8FBF3F903FB198A82
S31508004900A4F1300EBEF1090F16D87446A34224DD71
S31508004910BCF1000F1EDBB1451CD301D1A24519DB42
S3150800492006FB03464FF0010C15F8014BE8E72B2C64
S3150800493004BF2C78B51CCAE7A4F1410EBEF1190FC5
S3150800494001D8373CE2E7A4F1610EBEF1190F04D88D
S31508004950573CDBE74FF0FF3CE6E7BCF1000F05DA12
S3150800496022234646036042B930469EE707B176429F
S31508004970002AF9D0BCF1000F00D0691E1160F3E7D8
S315080049803024002BB1D10823AFE7302CA5D00A2359
S31508004990ABE700BFB096000813460A460146024830
S315080049A00068FFF777BF00BF481000202DE9F04FD9
S315080049B085B088461E460D460192464A03902B4608
S315080049C015F8014BA75C17F00807F8D12D2C48D12C
S315080049D02C7801279D1C002E78D0102E09D1302C5A
S315080049E007D12B7803F0DF03582B6AD16C78102691
S315080049F0023507F1004A07F1FF3B4FEAE6793246EE
S31508004A000AF1FF3A58464B465146FFF729FC002360
S31508004A108C460292194602461846A4F1300EBEF19B
S31508004A20090F23D87446A64231DDB3F1FF3F15D0EE
S31508004A3082427CEB010327D38C4508BF824202D110
S31508004A40029BA34220DB714300FB0911A6FB00036E
S31508004A50194420184FF0010341EBE47115F8014B96
S31508004A60DBE72B2C04BF2C789D1CB4E7A4F1410E80
S31508004A70BEF1190F01D8373CD5E7A4F1610EBEF196
S31508004A80190F04D8573CCEE74FF0FF33E6E75A1C18
S31508004A9009D12223039A584651461360019B53B9FC
S31508004AA005B0BDE8F08F17B1404261EB4101019AAC
S31508004AB0002AF5D00BB105F1FF38019BC3F8008039
S31508004AC0EEE73024002E94D1082692E7302C88D0C1
S31508004AD00A268EE7B096000813460A46014602489B
S31508004AE00068FFF763BF00BF481000202DE9F043B8
S31508004AF086460D46354F284615F8014BE65D16F0F5
S31508004B000806F8D12D2C2FD12C780126851C002BD0
S31508004B1057D0102B09D1302C07D1287800F0DF00A8
S31508004B20582849D16C78102302354FF0FF380027F2
S31508004B30B8FBF3F803FB08F938466FEA0909A4F14C
S31508004B40300CBCF1090F14D86446A34222DD002FAD
S31508004B501DDB80451BD301D1A14518DB00FB0340B3
S31508004B60012715F8014BEAE72B2C04BF2C78851C86
S31508004B70CDE7A4F1410CBCF1190F01D8373CE4E7A5
S31508004B80A4F1610CBCF1190F04D8573CDDE74FF0CE
S31508004B90FF37E6E7002F07DA22234FF0FF30CEF87B
S31508004BA0003032B9BDE8F08306B14042002AF9D098
S31508004BB007B1691E1160F5E73024002BB5D108232B
S31508004BC0B3E7302CA9D00A23AFE700BFB096000898
S31508004BD013460A46014602480068FFF787BF00BF2A
S31508004BE04810002013B50B46094902460C6844B123
S31508004BF0A16931B9CDE90003204600F0D3F9DDE912
S31508004C000023A168204602B0BDE8104000F070BB42
S31508004C1048100020F8B50E461446054618B18369B3
S31508004C200BB900F0BFF9214B9C422BD16C68A369E4
S31508004C30A360A3891A072FD523696BB32369F6B234
S31508004C4020683746C01A6369834204DC2146284631
S31508004C5000F02AF930BBA3680130013BA360236842
S31508004C605A1C22601E706369834204D0A389DB073D
S31508004C7006D50A2E04D12146284600F015F988B92A
S31508004C803846F8BD0A4B9C4201D1AC68CFE7094BC0
S31508004C909C4208BFEC68CAE72146284600F00CF893
S31508004CA00028CBD04FF0FF37EAE700BFD4970008BB
S31508004CB0F4970008B4970008324B70B51D6806468D
S31508004CC00C4625B1AB6913B9284600F06BF92E4B93
S31508004CD09C420FD16C68A389B4F90C2019072CD40F
S31508004CE0DD0611D40923336042F040034FF0FF304C
S31508004CF0A3813EE0254B9C4201D1AC68EBE7244BEF
S31508004D009C4208BFEC68E6E7580712D5616B41B1CB
S31508004D1004F14403994202D0304600F009FA002310
S31508004D206363A38923F02403A381002363602369B3
S31508004D302360A38943F00803A38123694BB9A38998
S31508004D4003F42073B3F5007F03D02146304600F004
S31508004D50A7F9A089B4F90C2010F001030AD00023A2
S31508004D60A36063695B42A361236943B910F08000BD
S31508004D70BAD170BD810758BF6369A360F4E7002004
S31508004D80F7E700BF48100020D4970008F4970008FA
S31508004D90B4970008014B1868704700BF48100020F8
S31508004DA08A892DE9F041054610070C4658D44B6808
S31508004DB0002B05DC0B6C002B02DC0020BDE8F08123
S31508004DC0E66A002EF9D0002312F480522F682B6071
S31508004DD032D0606DA3895A0705D56368C01A636B1C
S31508004DE00BB1236CC01A00230246E66A2846216ADC
S31508004DF0B047431CA38906D129681D292CD8294AFE
S31508004E00CA40D60728D50022D904626022692260E2
S31508004E1004D5421C01D12B6803B96065616B2F600C
S31508004E200029CAD004F14403994202D0284600F06A
S31508004E307FF900206063C1E7216A01232846B0474D
S31508004E40411CC7D12B68002BC4D01D2B01D0162BB3
S31508004E5001D12F60B1E7A38943F04003A381ADE7F1
S31508004E600F69002FA9D093070E680F600CBF4B6916
S31508004E700023A6EB07088B60B8F1000F9DDD4346BB
S31508004E803A46216A2846A66AB047002806DCA3895E
S31508004E904FF0FF3043F04003A3818FE70744A8EBA8
S31508004EA00008E9E70100402038B50B6905460C46BD
S31508004EB013B90025284638BD18B183690BB900F027
S31508004EC071F8144B9C421BD16C68B4F90C30002B5A
S31508004ED0EFD0626ED00704D4990502D4A06D03F012
S31508004EE052F928462146FFF75BFF636E0546DA0747
S31508004EF0E0D4A3899B05DDD4A06D03F045F9D9E775
S31508004F00054B9C4201D1AC68DFE7044B9C4208BFC5
S31508004F10EC68DAE7D4970008F4970008B497000815
S31508004F20002310B504468360818119464366C28111
S31508004F3008228361C0E90033C0E904335C3003F01A
S31508004F40BEF8054B24626362044BA362044BE3621A
S31508004F50044B236310BD00BF07830008298300089C
S31508004F606183000885830008014903F0ECB800BF97
S31508004F70A94E0008014803F006B900BF5F200020CB
S31508004F80014803F001B900BF5F200020014803F083
S31508004F90FAB800BF60200020014803F0F5B800BF4A
S31508004FA06020002010B50446FFF7F0FFA3691BB187
S31508004FB0BDE81040FFF7F0BFC4E912332365204669
S31508004FC0124B134A1B68A262A34204BF0123A361C2
S31508004FD000F020F86060204600F01CF8A06020462B
S31508004FE000F018F800220421E0606068FFF798FFD7
S31508004FF001220921A068FFF793FF02221221E06827
S31508005000FFF78EFF0123A361D2E700BFB097000820
S31508005010694F0008F8B50746FFF7ACFF1E4B1E6838
S31508005020B36913B93046FFF7BDFF4836D6E90134F0
S31508005030013B03D533680BB33668F7E7B4F90C5070
S31508005040D5B9164B04F158006566E36003F09AF883
S31508005050FFF796FF0822294604F15C002560A56142
S31508005060C4E90155C4E9045503F029F8C4E90D5506
S31508005070C4E912552046F8BD6834D9E704213846F4
S3150800508003F04BF8044630600028D5D1FFF778FFC7
S315080050900C233B60EEE700BFB09700080100FFFF56
S315080050A08B8973B59D0706460C4607D504F1470359
S315080050B0236023610123636102B070BD01AB6A46B8
S315080050C003F063F800990546304600F09DF848B9A4
S315080050D0B4F90C309A05EFD423F0030343F0020326
S315080050E0A381E3E70D4BB362A389206043F08003F5
S315080050F02061A381009B6361019B5BB1B4F90E102B
S31508005100304600F08FFB28B1A38923F0030343F050
S315080051100103A381A0890543A581CDE7694F00084E
S31508005120024B0146186800F06FB800BF481000200F
S3150800513037B5002943D051F8043C0C1F0190002BC9
S31508005140B8BFE41800F090FB1E4A0198136833B9FB
S315080051506360146003B0BDE8304000F08BBBA34227
S3150800516008D9256861198B4201BF19685B68491916
S315080051702160EDE71A465B680BB1A342FAD91168BC
S315080051805518A5420BD12468214454181160A3422E
S31508005190E0D11C685B68214453601160DAE702D9E4
S315080051A00C230360D6E7256861198B4202BF19688C
S315080051B05B684919636008BF21605460CAE703B099
S315080051C030BD00BF5C1F002070B50E4E0C4605466C
S315080051D0316811B900F0E2FA30602146284600F03D
S315080051E0DDFA431C0AD0C41C24F00304A04207D0ED
S315080051F0211A284600F0D2FA013001D14FF0FF34C7
S31508005200204670BD601F00202DE9F041CD1C0746E1
S3150800521025F0030508350C2D38BF0C25002D01DBBC
S31508005220A94205D90C2300263B603046BDE8F0812B
S315080052302E4E00F019FB33681C4634BB2946384607
S31508005240FFF7C2FF431C04464DD134682646002E9C
S3150800525040D123683146384604EB030800F09EFA2D
S3150800526080453AD12168033538466D1A25F003057D
S3150800527008350C2D38BF0C252946FFF7A5FF013048
S315080052802BD023682B4423600EE02268521B1ED4C1
S315080052900B2A16D96119A342256018BF596063689D
S315080052A008BF316062514B6004F10B06384600F0C6
S315080052B0E1FA231D26F00706F21AB6D09B1BA35067
S315080052C0B3E76268A3420CBF32605A60ECE7234634
S315080052D06468B2E734467668B9E70C2338463B601B
S315080052E000F0C8FAA1E72560DEE700BF5C1F0020D2
S315080052F02DE9F04F0D469DB014469846064618B15E
S3150800530083690BB9FFF74EFE894B9D421BD1756821
S315080053106B6ED90705D4AB899A0502D4A86D02F03D
S3150800532032FFAB891B0701D52B69EBB929463046F5
S31508005330FFF7C2FCC0B16B6EDC070ED54FF0FF302D
S315080053401DB0BDE8F08F7B4B9D4201D1B568DFE704
S31508005350794B9D4208BFF568DAE7AB899805EDD425
S31508005360A86D02F011FFE9E70023CDF80C804FF095
S315080053700109DFF8C881099320238DF829303023E5
S315080053808DF82A3023469A4613F8012B0AB1252AA6
S31508005390F9D1BAEB040B0BD05B46224629463046B8
S315080053A002F02FFF013000F0AA80099A5A440992A8
S315080053B09AF80030002B00F0A28000234FF0FF324D
S315080053C00AF1010A049307938DF853301A93CDE92D
S315080053D0052354460522594814F8011B02F0D6FF46
S315080053E0049AD8B9D10644BF20238DF85330130741
S315080053F044BF2B238DF853309AF800302A2B15D04A
S31508005400079A544600204FF00A0C214611F8013B32
S31508005410303B092B4ED9B0B1079214E0A0EB080334
S31508005420A24609FA03F313430493D2E7039B191D13
S315080054301B68002B0391BBBF5B4242F00202079335
S315080054400793B8BF049223782E2B0CD163782A2BA6
S3150800545035D1039B02341A1D1B68002B0392B8BF73
S315080054604FF0FF330593DFF8E4A003222178504676
S3150800547002F08CFF40B14023A0EB0A00013403FA86
S3150800548000F0049B0343049314F8011B06222C48DE
S315080054908DF8281002F07AFF00283FD0294B1BBB55
S315080054A0039B073323F0070308330393099B3B4405
S315080054B0099367E70CFB02320C460120A5E7002397
S315080054C001344FF00A0C19460593204610F8012BB3
S315080054D0303A092A03D9002BC5D00591C3E70CFB3E
S315080054E0012104460123F0E703AB2A4604A9304606
S315080054F00093154B00E000BF0746781CD6D16B6EAB
